{
  "contractName": "Chargingbox",
  "abi": [
    {
      "constant": true,
      "inputs": [],
      "name": "renter",
      "outputs": [
        {
          "name": "",
          "type": "address"
        }
      ],
      "payable": false,
      "stateMutability": "view",
      "type": "function"
    },
    {
      "constant": true,
      "inputs": [],
      "name": "owner",
      "outputs": [
        {
          "name": "",
          "type": "address"
        }
      ],
      "payable": false,
      "stateMutability": "view",
      "type": "function"
    },
    {
      "constant": true,
      "inputs": [],
      "name": "endTimestamp",
      "outputs": [
        {
          "name": "",
          "type": "uint256"
        }
      ],
      "payable": false,
      "stateMutability": "view",
      "type": "function"
    },
    {
      "inputs": [],
      "payable": false,
      "stateMutability": "nonpayable",
      "type": "constructor"
    },
    {
      "anonymous": false,
      "inputs": [
        {
          "indexed": true,
          "name": "_from",
          "type": "address"
        },
        {
          "indexed": false,
          "name": "_value",
          "type": "uint256"
        }
      ],
      "name": "Rented",
      "type": "event"
    },
    {
      "constant": false,
      "inputs": [],
      "name": "rent",
      "outputs": [],
      "payable": true,
      "stateMutability": "payable",
      "type": "function"
    }
  ],
  "bytecode": "0x608060405266038d7ea4c6800060005566038d7ea4c68000600155600060045534801561002b57600080fd5b5033600260006101000a81548173ffffffffffffffffffffffffffffffffffffffff021916908373ffffffffffffffffffffffffffffffffffffffff1602179055506102938061007c6000396000f300608060405260043610610062576000357c0100000000000000000000000000000000000000000000000000000000900463ffffffff1680632e88ab0b1461006757806382996d9f146100be5780638da5cb5b146100c8578063a85adeab1461011f575b600080fd5b34801561007357600080fd5b5061007c61014a565b604051808273ffffffffffffffffffffffffffffffffffffffff1673ffffffffffffffffffffffffffffffffffffffff16815260200191505060405180910390f35b6100c6610170565b005b3480156100d457600080fd5b506100dd61023b565b604051808273ffffffffffffffffffffffffffffffffffffffff1673ffffffffffffffffffffffffffffffffffffffff16815260200191505060405180910390f35b34801561012b57600080fd5b50610134610261565b6040518082815260200191505060405180910390f35b600360009054906101000a900473ffffffffffffffffffffffffffffffffffffffff1681565b600154341015151561018157600080fd5b6004544211151561019157600080fd5b603c600054348115156101a057fe5b0402420160048190555033600360006101000a81548173ffffffffffffffffffffffffffffffffffffffff021916908373ffffffffffffffffffffffffffffffffffffffff1602179055503373ffffffffffffffffffffffffffffffffffffffff167f8a1baed21859112417dade4135990d21555a912a901803f24316a19a8d6ad8b0346040518082815260200191505060405180910390a2565b600260009054906101000a900473ffffffffffffffffffffffffffffffffffffffff1681565b600454815600a165627a7a72305820fdeb06501e1204fad706308a26db791151195b733131c1189f32da474dc0a3890029",
  "source": "pragma solidity ^0.4.18;\n\ncontract Chargingbox {\n    uint256 rate = 0.001 ether;\n    uint256 minimum = 0.001 ether;\n\n    address public owner;\n    address public renter;\n    uint256 public endTimestamp = 0;\n\n    event Rented(address indexed _from, uint256 _value);\n\n    constructor() public {\n        owner = msg.sender;\n    }\n\n    function rent() public payable {\n        require(msg.value >= minimum);\n\n        require (now > endTimestamp);\n\n        endTimestamp = now + (msg.value / rate) * 60;\n\n        renter = msg.sender;\n        emit Rented(msg.sender, msg.value);\n    }\n}",
  "sourcePath": "/Users/innogy-hao/dev/blog/blockchain/eth_02_truffle_tdd/contracts/Chargingbox.sol",
  "compiler": {
    "name": "solc",
    "version": "0.4.23+commit.124ca40d.Emscripten.clang"
  },
  "schemaVersion": "2.0.0",
  "updatedAt": "2018-05-01T12:32:24.281Z"
}